{
  "_format": "hh-sol-artifact-1",
  "contractName": "BookingSystem",
  "sourceName": "contracts/BookingSystem.sol",
  "abi": [
    {
      "inputs": [],
      "stateMutability": "nonpayable",
      "type": "constructor"
    },
    {
      "anonymous": false,
      "inputs": [
        {
          "indexed": false,
          "internalType": "uint256",
          "name": "roomNumber",
          "type": "uint256"
        },
        {
          "indexed": false,
          "internalType": "uint256",
          "name": "hour",
          "type": "uint256"
        },
        {
          "indexed": false,
          "internalType": "bytes1",
          "name": "company",
          "type": "bytes1"
        }
      ],
      "name": "MeetingRoomBooked",
      "type": "event"
    },
    {
      "anonymous": false,
      "inputs": [
        {
          "indexed": false,
          "internalType": "uint256",
          "name": "roomNumber",
          "type": "uint256"
        },
        {
          "indexed": false,
          "internalType": "uint256",
          "name": "hour",
          "type": "uint256"
        },
        {
          "indexed": false,
          "internalType": "bytes1",
          "name": "company",
          "type": "bytes1"
        }
      ],
      "name": "ReservationCanceled",
      "type": "event"
    },
    {
      "inputs": [],
      "name": "HOUR_MAX",
      "outputs": [
        {
          "internalType": "uint256",
          "name": "",
          "type": "uint256"
        }
      ],
      "stateMutability": "view",
      "type": "function"
    },
    {
      "inputs": [],
      "name": "HOUR_MIN",
      "outputs": [
        {
          "internalType": "uint256",
          "name": "",
          "type": "uint256"
        }
      ],
      "stateMutability": "view",
      "type": "function"
    },
    {
      "inputs": [],
      "name": "ROOMS_BY_COMPANY",
      "outputs": [
        {
          "internalType": "uint256",
          "name": "",
          "type": "uint256"
        }
      ],
      "stateMutability": "view",
      "type": "function"
    },
    {
      "inputs": [],
      "name": "ROOM_NUMBER_MAX",
      "outputs": [
        {
          "internalType": "uint256",
          "name": "",
          "type": "uint256"
        }
      ],
      "stateMutability": "view",
      "type": "function"
    },
    {
      "inputs": [],
      "name": "ROOM_NUMBER_MIN",
      "outputs": [
        {
          "internalType": "uint256",
          "name": "",
          "type": "uint256"
        }
      ],
      "stateMutability": "view",
      "type": "function"
    },
    {
      "inputs": [
        {
          "internalType": "uint256",
          "name": "roomNumber",
          "type": "uint256"
        },
        {
          "internalType": "uint256",
          "name": "hour",
          "type": "uint256"
        },
        {
          "internalType": "bytes1",
          "name": "company",
          "type": "bytes1"
        }
      ],
      "name": "book",
      "outputs": [],
      "stateMutability": "nonpayable",
      "type": "function"
    },
    {
      "inputs": [
        {
          "internalType": "uint256",
          "name": "roomNumber",
          "type": "uint256"
        },
        {
          "internalType": "uint256",
          "name": "hour",
          "type": "uint256"
        }
      ],
      "name": "cancel",
      "outputs": [],
      "stateMutability": "nonpayable",
      "type": "function"
    },
    {
      "inputs": [
        {
          "internalType": "uint256",
          "name": "roomNumber",
          "type": "uint256"
        },
        {
          "internalType": "bytes1",
          "name": "company",
          "type": "bytes1"
        }
      ],
      "name": "getHoursAvailable",
      "outputs": [
        {
          "internalType": "bool[9]",
          "name": "",
          "type": "bool[9]"
        }
      ],
      "stateMutability": "view",
      "type": "function"
    },
    {
      "inputs": [
        {
          "internalType": "address",
          "name": "user",
          "type": "address"
        }
      ],
      "name": "getReservations",
      "outputs": [
        {
          "internalType": "uint256[9][20]",
          "name": "",
          "type": "uint256[9][20]"
        }
      ],
      "stateMutability": "view",
      "type": "function"
    },
    {
      "inputs": [
        {
          "internalType": "uint256",
          "name": "roomNumber",
          "type": "uint256"
        },
        {
          "internalType": "uint256",
          "name": "hour",
          "type": "uint256"
        },
        {
          "internalType": "bytes1",
          "name": "company",
          "type": "bytes1"
        }
      ],
      "name": "isRoomAvailable",
      "outputs": [
        {
          "internalType": "bool",
          "name": "",
          "type": "bool"
        }
      ],
      "stateMutability": "view",
      "type": "function"
    },
    {
      "inputs": [
        {
          "internalType": "uint256",
          "name": "",
          "type": "uint256"
        },
        {
          "internalType": "uint256",
          "name": "",
          "type": "uint256"
        }
      ],
      "name": "reservations",
      "outputs": [
        {
          "internalType": "bytes1",
          "name": "company",
          "type": "bytes1"
        },
        {
          "internalType": "address",
          "name": "user",
          "type": "address"
        }
      ],
      "stateMutability": "view",
      "type": "function"
    },
    {
      "inputs": [
        {
          "internalType": "bytes1",
          "name": "",
          "type": "bytes1"
        },
        {
          "internalType": "uint256",
          "name": "",
          "type": "uint256"
        }
      ],
      "name": "roomsByCompanyByHour",
      "outputs": [
        {
          "internalType": "uint256",
          "name": "",
          "type": "uint256"
        }
      ],
      "stateMutability": "view",
      "type": "function"
    }
  ],
  "bytecode": "0x608060405234801561001057600080fd5b5061137b806100206000396000f3fe608060405234801561001057600080fd5b50600436106100b35760003560e01c806372ae40a81161007157806372ae40a8146101b35780638ab44ffc146101d1578063b5111efd146101ef578063bbe7e9bd1461020b578063c290d4121461023b578063e532455014610259576100b3565b8062efa895146100b85780630a0526dd146100d4578063119b5816146100f2578063132a98c01461012257806330662b7b146101525780635866843e14610183575b600080fd5b6100d260048036038101906100cd9190610c41565b610277565b005b6100dc610489565b6040516100e99190610ffc565b60405180910390f35b61010c60048036038101906101079190610bc9565b61048e565b6040516101199190610ffc565b60405180910390f35b61013c60048036038101906101379190610ba0565b6104b3565b6040516101499190610f00565b60405180910390f35b61016c60048036038101906101679190610c41565b61063d565b60405161017a929190610f53565b60405180910390f35b61019d60048036038101906101989190610c7d565b61069b565b6040516101aa9190610f38565b60405180910390f35b6101bb6107a6565b6040516101c89190610ffc565b60405180910390f35b6101d96107ab565b6040516101e69190610ffc565b60405180910390f35b61020960048036038101906102049190610c7d565b6107b0565b005b61022560048036038101906102209190610c05565b6109ed565b6040516102329190610f1c565b60405180910390f35b610243610ae3565b6040516102509190610ffc565b60405180910390f35b610261610ae8565b60405161026e9190610ffc565b60405180910390f35b8181338073ffffffffffffffffffffffffffffffffffffffff16600080858152602001908152602001600020600084815260200190815260200160002060000160019054906101000a900473ffffffffffffffffffffffffffffffffffffffff1673ffffffffffffffffffffffffffffffffffffffff161461032e576040517f08c379a000000000000000000000000000000000000000000000000000000000815260040161032590610fdc565b60405180910390fd5b6000806000878152602001908152602001600020600086815260200190815260200160002060000160009054906101000a900460f81b90506000808781526020019081526020016000206000868152602001908152602001600020600080820160006101000a81549060ff02191690556000820160016101000a81549073ffffffffffffffffffffffffffffffffffffffff021916905550506001806000837effffffffffffffffffffffffffffffffffffffffffffffffffffffffffffff19167effffffffffffffffffffffffffffffffffffffffffffffffffffffffffffff191681526020019081526020016000206000878152602001908152602001600020600082825461043f919061113c565b925050819055507ffe17011d981e7e1f750e36d0d07a90b9cbbb20ceccd3d556853cabd1e07cb0a686868360405161047993929190611017565b60405180910390a1505050505050565b600981565b6001602052816000526040600020602052806000526040600020600091509150505481565b6104bb610aed565b6104c3610aed565b600080600190505b60148111610632576104db610b1b565b600080600990505b601181116105cb578773ffffffffffffffffffffffffffffffffffffffff16600080868152602001908152602001600020600083815260200190815260200160002060000160019054906101000a900473ffffffffffffffffffffffffffffffffffffffff1673ffffffffffffffffffffffffffffffffffffffff1614156105a9578083836009811061059f577f4e487b7100000000000000000000000000000000000000000000000000000000600052603260045260246000fd5b6020020181815250505b6001826105b691906110e6565b915080806105c3906111e4565b9150506104e3565b5081858560148110610606577f4e487b7100000000000000000000000000000000000000000000000000000000600052603260045260246000fd5b602002018190525060018461061b91906110e6565b93505050808061062a906111e4565b9150506104cb565b508192505050919050565b6000602052816000526040600020602052806000526040600020600091509150508060000160009054906101000a900460f81b908060000160019054906101000a900473ffffffffffffffffffffffffffffffffffffffff16905082565b6000600a60016000847effffffffffffffffffffffffffffffffffffffffffffffffffffffffffffff19167effffffffffffffffffffffffffffffffffffffffffffffffffffffffffffff1916815260200190815260200160002060008581526020019081526020016000205410610716576000905061079f565b600073ffffffffffffffffffffffffffffffffffffffff16600080868152602001908152602001600020600085815260200190815260200160002060000160019054906101000a900473ffffffffffffffffffffffffffffffffffffffff1673ffffffffffffffffffffffffffffffffffffffff16141561079a576001905061079f565b600090505b9392505050565b600a81565b600181565b8282826107be83838361069b565b6107fd576040517f08c379a00000000000000000000000000000000000000000000000000000000081526004016107f490610fbc565b60405180910390fd5b8480600911158015610810575060118111155b61084f576040517f08c379a000000000000000000000000000000000000000000000000000000000815260040161084690610f7c565b60405180910390fd5b8680600111158015610862575060148111155b6108a1576040517f08c379a000000000000000000000000000000000000000000000000000000000815260040161089890610f9c565b60405180910390fd5b60008060008a815260200190815260200160002060008981526020019081526020016000209050868160000160006101000a81548160ff021916908360f81c0217905550338160000160016101000a81548173ffffffffffffffffffffffffffffffffffffffff021916908373ffffffffffffffffffffffffffffffffffffffff1602179055506001806000897effffffffffffffffffffffffffffffffffffffffffffffffffffffffffffff19167effffffffffffffffffffffffffffffffffffffffffffffffffffffffffffff1916815260200190815260200160002060008a815260200190815260200160002060008282546109a091906110e6565b925050819055507f4652516d9a89aa46bad6ee719199a1265603b1048266bd2a038907d922d85e0a8989896040516109da93929190611017565b60405180910390a1505050505050505050565b6109f5610b3e565b6109fd610b3e565b600080600990505b60118111610ad757610a1886828761069b565b610a6a576000838360098110610a57577f4e487b7100000000000000000000000000000000000000000000000000000000600052603260045260246000fd5b6020020190151590811515815250610ab4565b6001838360098110610aa5577f4e487b7100000000000000000000000000000000000000000000000000000000600052603260045260246000fd5b60200201901515908115158152505b50600182610ac291906110e6565b91508080610acf906111e4565b915050610a05565b50819250505092915050565b601481565b601181565b6040518061028001604052806014905b610b05610b1b565b815260200190600190039081610afd5790505090565b604051806101200160405280600990602082028036833780820191505090505090565b604051806101200160405280600990602082028036833780820191505090505090565b600081359050610b7081611300565b92915050565b600081359050610b8581611317565b92915050565b600081359050610b9a8161132e565b92915050565b600060208284031215610bb257600080fd5b6000610bc084828501610b61565b91505092915050565b60008060408385031215610bdc57600080fd5b6000610bea85828601610b76565b9250506020610bfb85828601610b8b565b9150509250929050565b60008060408385031215610c1857600080fd5b6000610c2685828601610b8b565b9250506020610c3785828601610b76565b9150509250929050565b60008060408385031215610c5457600080fd5b6000610c6285828601610b8b565b9250506020610c7385828601610b8b565b9150509250929050565b600080600060608486031215610c9257600080fd5b6000610ca086828701610b8b565b9350506020610cb186828701610b8b565b9250506040610cc286828701610b76565b9150509250925092565b6000610cd88383610dd2565b6101208301905092915050565b6000610cf18383610e29565b60208301905092915050565b6000610d098383610ee2565b60208301905092915050565b610d1e81611170565b82525050565b610d2d8161106c565b610d3781846110b4565b9250610d428261104e565b8060005b83811015610d73578151610d5a8782610ccc565b9650610d658361108d565b925050600181019050610d46565b505050505050565b610d8481611077565b610d8e81846110bf565b9250610d9982611058565b8060005b83811015610dca578151610db18782610ce5565b9650610dbc8361109a565b925050600181019050610d9d565b505050505050565b610ddb81611082565b610de581846110ca565b9250610df082611062565b8060005b83811015610e21578151610e088782610cfd565b9650610e13836110a7565b925050600181019050610df4565b505050505050565b610e3281611182565b82525050565b610e4181611182565b82525050565b610e508161118e565b82525050565b6000610e63600c836110d5565b9150610e6e8261125c565b602082019050919050565b6000610e866013836110d5565b9150610e9182611285565b602082019050919050565b6000610ea9601a836110d5565b9150610eb4826112ae565b602082019050919050565b6000610ecc6012836110d5565b9150610ed7826112d7565b602082019050919050565b610eeb816111da565b82525050565b610efa816111da565b82525050565b600061168082019050610f166000830184610d24565b92915050565b600061012082019050610f326000830184610d7b565b92915050565b6000602082019050610f4d6000830184610e38565b92915050565b6000604082019050610f686000830185610e47565b610f756020830184610d15565b9392505050565b60006020820190508181036000830152610f9581610e56565b9050919050565b60006020820190508181036000830152610fb581610e79565b9050919050565b60006020820190508181036000830152610fd581610e9c565b9050919050565b60006020820190508181036000830152610ff581610ebf565b9050919050565b60006020820190506110116000830184610ef1565b92915050565b600060608201905061102c6000830186610ef1565b6110396020830185610ef1565b6110466040830184610e47565b949350505050565b6000819050919050565b6000819050919050565b6000819050919050565b600060149050919050565b600060099050919050565b600060099050919050565b6000602082019050919050565b6000602082019050919050565b6000602082019050919050565b600081905092915050565b600081905092915050565b600081905092915050565b600082825260208201905092915050565b60006110f1826111da565b91506110fc836111da565b9250827fffffffffffffffffffffffffffffffffffffffffffffffffffffffffffffffff038211156111315761113061122d565b5b828201905092915050565b6000611147826111da565b9150611152836111da565b9250828210156111655761116461122d565b5b828203905092915050565b600061117b826111ba565b9050919050565b60008115159050919050565b60007fff0000000000000000000000000000000000000000000000000000000000000082169050919050565b600073ffffffffffffffffffffffffffffffffffffffff82169050919050565b6000819050919050565b60006111ef826111da565b91507fffffffffffffffffffffffffffffffffffffffffffffffffffffffffffffffff8214156112225761122161122d565b5b600182019050919050565b7f4e487b7100000000000000000000000000000000000000000000000000000000600052601160045260246000fd5b7f484f55525f494e56414c49440000000000000000000000000000000000000000600082015250565b7f524f4f4d5f4e554d4245525f494e56414c494400000000000000000000000000600082015250565b7f4d454554494e475f524f4f4d5f4e4f545f415641494c41424c45000000000000600082015250565b7f4e4f545f424f4f4b45445f42595f555345520000000000000000000000000000600082015250565b61130981611170565b811461131457600080fd5b50565b6113208161118e565b811461132b57600080fd5b50565b611337816111da565b811461134257600080fd5b5056fea2646970667358221220f4339eed027da501d65855879b5c55f33d1fdd733c66eb1b849fc50ee5d863f764736f6c63430008040033",
  "linkReferences": {},
  "deployedLinkReferences": {}
}