{
  "_format": "hh-sol-artifact-1",
  "contractName": "BookingSystem",
  "sourceName": "contracts/BookingSystem.sol",
  "abi": [
    {
      "inputs": [],
      "stateMutability": "nonpayable",
      "type": "constructor"
    },
    {
      "anonymous": false,
      "inputs": [
        {
          "indexed": false,
          "internalType": "uint256",
          "name": "roomNumber",
          "type": "uint256"
        },
        {
          "indexed": false,
          "internalType": "uint256",
          "name": "hour",
          "type": "uint256"
        },
        {
          "indexed": false,
          "internalType": "bytes1",
          "name": "company",
          "type": "bytes1"
        }
      ],
      "name": "MeetingRoomBooked",
      "type": "event"
    },
    {
      "anonymous": false,
      "inputs": [
        {
          "indexed": false,
          "internalType": "uint256",
          "name": "roomNumber",
          "type": "uint256"
        },
        {
          "indexed": false,
          "internalType": "uint256",
          "name": "hour",
          "type": "uint256"
        },
        {
          "indexed": false,
          "internalType": "bytes1",
          "name": "company",
          "type": "bytes1"
        }
      ],
      "name": "ReservationCanceled",
      "type": "event"
    },
    {
      "inputs": [],
      "name": "HOUR_MAX",
      "outputs": [
        {
          "internalType": "uint256",
          "name": "",
          "type": "uint256"
        }
      ],
      "stateMutability": "view",
      "type": "function"
    },
    {
      "inputs": [],
      "name": "HOUR_MIN",
      "outputs": [
        {
          "internalType": "uint256",
          "name": "",
          "type": "uint256"
        }
      ],
      "stateMutability": "view",
      "type": "function"
    },
    {
      "inputs": [],
      "name": "ROOMS_BY_COMPANY",
      "outputs": [
        {
          "internalType": "uint256",
          "name": "",
          "type": "uint256"
        }
      ],
      "stateMutability": "view",
      "type": "function"
    },
    {
      "inputs": [],
      "name": "ROOM_NUMBER_MAX",
      "outputs": [
        {
          "internalType": "uint256",
          "name": "",
          "type": "uint256"
        }
      ],
      "stateMutability": "view",
      "type": "function"
    },
    {
      "inputs": [],
      "name": "ROOM_NUMBER_MIN",
      "outputs": [
        {
          "internalType": "uint256",
          "name": "",
          "type": "uint256"
        }
      ],
      "stateMutability": "view",
      "type": "function"
    },
    {
      "inputs": [
        {
          "internalType": "uint256",
          "name": "roomNumber",
          "type": "uint256"
        },
        {
          "internalType": "uint256",
          "name": "hour",
          "type": "uint256"
        },
        {
          "internalType": "bytes1",
          "name": "company",
          "type": "bytes1"
        }
      ],
      "name": "book",
      "outputs": [],
      "stateMutability": "nonpayable",
      "type": "function"
    },
    {
      "inputs": [
        {
          "internalType": "uint256",
          "name": "roomNumber",
          "type": "uint256"
        },
        {
          "internalType": "uint256",
          "name": "hour",
          "type": "uint256"
        }
      ],
      "name": "cancel",
      "outputs": [],
      "stateMutability": "nonpayable",
      "type": "function"
    },
    {
      "inputs": [
        {
          "internalType": "uint256",
          "name": "roomNumber",
          "type": "uint256"
        },
        {
          "internalType": "bytes1",
          "name": "company",
          "type": "bytes1"
        }
      ],
      "name": "getHoursAvailable",
      "outputs": [
        {
          "internalType": "bool[9]",
          "name": "",
          "type": "bool[9]"
        }
      ],
      "stateMutability": "view",
      "type": "function"
    },
    {
      "inputs": [
        {
          "internalType": "address",
          "name": "user",
          "type": "address"
        }
      ],
      "name": "getReservations",
      "outputs": [
        {
          "internalType": "uint256[9][20]",
          "name": "",
          "type": "uint256[9][20]"
        }
      ],
      "stateMutability": "view",
      "type": "function"
    },
    {
      "inputs": [
        {
          "internalType": "uint256",
          "name": "roomNumber",
          "type": "uint256"
        },
        {
          "internalType": "uint256",
          "name": "hour",
          "type": "uint256"
        },
        {
          "internalType": "bytes1",
          "name": "company",
          "type": "bytes1"
        }
      ],
      "name": "isRoomAvailable",
      "outputs": [
        {
          "internalType": "bool",
          "name": "",
          "type": "bool"
        }
      ],
      "stateMutability": "view",
      "type": "function"
    },
    {
      "inputs": [
        {
          "internalType": "uint256",
          "name": "",
          "type": "uint256"
        },
        {
          "internalType": "uint256",
          "name": "",
          "type": "uint256"
        }
      ],
      "name": "reservations",
      "outputs": [
        {
          "internalType": "bytes1",
          "name": "company",
          "type": "bytes1"
        },
        {
          "internalType": "address",
          "name": "user",
          "type": "address"
        }
      ],
      "stateMutability": "view",
      "type": "function"
    },
    {
      "inputs": [
        {
          "internalType": "bytes1",
          "name": "",
          "type": "bytes1"
        },
        {
          "internalType": "uint256",
          "name": "",
          "type": "uint256"
        }
      ],
      "name": "roomsByCompanyByHour",
      "outputs": [
        {
          "internalType": "uint256",
          "name": "",
          "type": "uint256"
        }
      ],
      "stateMutability": "view",
      "type": "function"
    }
  ],
  "bytecode": "0x608060405234801561001057600080fd5b50611481806100206000396000f3fe608060405234801561001057600080fd5b50600436106100b35760003560e01c806372ae40a81161007157806372ae40a8146101b35780638ab44ffc146101d1578063b5111efd146101ef578063bbe7e9bd1461020b578063c290d4121461023b578063e532455014610259576100b3565b8062efa895146100b85780630a0526dd146100d4578063119b5816146100f2578063132a98c01461012257806330662b7b146101525780635866843e14610183575b600080fd5b6100d260048036038101906100cd9190610cdb565b610277565b005b6100dc610489565b6040516100e991906110d9565b60405180910390f35b61010c60048036038101906101079190610c63565b61048e565b60405161011991906110d9565b60405180910390f35b61013c60048036038101906101379190610c3a565b6104b3565b6040516101499190610fbd565b60405180910390f35b61016c60048036038101906101679190610cdb565b61063d565b60405161017a929190611010565b60405180910390f35b61019d60048036038101906101989190610d17565b61069b565b6040516101aa9190610ff5565b60405180910390f35b6101bb6107a6565b6040516101c891906110d9565b60405180910390f35b6101d96107ab565b6040516101e691906110d9565b60405180910390f35b61020960048036038101906102049190610d17565b6107b0565b005b61022560048036038101906102209190610c9f565b610a87565b6040516102329190610fd9565b60405180910390f35b610243610b7d565b60405161025091906110d9565b60405180910390f35b610261610b82565b60405161026e91906110d9565b60405180910390f35b8181338073ffffffffffffffffffffffffffffffffffffffff16600080858152602001908152602001600020600084815260200190815260200160002060000160019054906101000a900473ffffffffffffffffffffffffffffffffffffffff1673ffffffffffffffffffffffffffffffffffffffff161461032e576040517f08c379a000000000000000000000000000000000000000000000000000000000815260040161032590611099565b60405180910390fd5b6000806000878152602001908152602001600020600086815260200190815260200160002060000160009054906101000a900460f81b90506000808781526020019081526020016000206000868152602001908152602001600020600080820160006101000a81549060ff02191690556000820160016101000a81549073ffffffffffffffffffffffffffffffffffffffff021916905550506001806000837effffffffffffffffffffffffffffffffffffffffffffffffffffffffffffff19167effffffffffffffffffffffffffffffffffffffffffffffffffffffffffffff191681526020019081526020016000206000878152602001908152602001600020600082825461043f9190611219565b925050819055507ffe17011d981e7e1f750e36d0d07a90b9cbbb20ceccd3d556853cabd1e07cb0a6868683604051610479939291906110f4565b60405180910390a1505050505050565b600981565b6001602052816000526040600020602052806000526040600020600091509150505481565b6104bb610b87565b6104c3610b87565b600080600190505b60148111610632576104db610bb5565b600080600990505b601181116105cb578773ffffffffffffffffffffffffffffffffffffffff16600080868152602001908152602001600020600083815260200190815260200160002060000160019054906101000a900473ffffffffffffffffffffffffffffffffffffffff1673ffffffffffffffffffffffffffffffffffffffff1614156105a9578083836009811061059f577f4e487b7100000000000000000000000000000000000000000000000000000000600052603260045260246000fd5b6020020181815250505b6001826105b691906111c3565b915080806105c3906112c1565b9150506104e3565b5081858560148110610606577f4e487b7100000000000000000000000000000000000000000000000000000000600052603260045260246000fd5b602002018190525060018461061b91906111c3565b93505050808061062a906112c1565b9150506104cb565b508192505050919050565b6000602052816000526040600020602052806000526040600020600091509150508060000160009054906101000a900460f81b908060000160019054906101000a900473ffffffffffffffffffffffffffffffffffffffff16905082565b6000600a60016000847effffffffffffffffffffffffffffffffffffffffffffffffffffffffffffff19167effffffffffffffffffffffffffffffffffffffffffffffffffffffffffffff1916815260200190815260200160002060008581526020019081526020016000205410610716576000905061079f565b600073ffffffffffffffffffffffffffffffffffffffff16600080868152602001908152602001600020600085815260200190815260200160002060000160019054906101000a900473ffffffffffffffffffffffffffffffffffffffff1673ffffffffffffffffffffffffffffffffffffffff16141561079a576001905061079f565b600090505b9392505050565b600a81565b600181565b8282826107be83838361069b565b6107fd576040517f08c379a00000000000000000000000000000000000000000000000000000000081526004016107f490611079565b60405180910390fd5b8480600911158015610810575060118111155b61084f576040517f08c379a000000000000000000000000000000000000000000000000000000000815260040161084690611039565b60405180910390fd5b8680600111158015610862575060148111155b6108a1576040517f08c379a000000000000000000000000000000000000000000000000000000000815260040161089890611059565b60405180910390fd5b85600060f81b817effffffffffffffffffffffffffffffffffffffffffffffffffffffffffffff191614806108fb5750600160f81b817effffffffffffffffffffffffffffffffffffffffffffffffffffffffffffff1916145b61093a576040517f08c379a0000000000000000000000000000000000000000000000000000000008152600401610931906110b9565b60405180910390fd5b60008060008b815260200190815260200160002060008a81526020019081526020016000209050878160000160006101000a81548160ff021916908360f81c0217905550338160000160016101000a81548173ffffffffffffffffffffffffffffffffffffffff021916908373ffffffffffffffffffffffffffffffffffffffff16021790555060018060008a7effffffffffffffffffffffffffffffffffffffffffffffffffffffffffffff19167effffffffffffffffffffffffffffffffffffffffffffffffffffffffffffff1916815260200190815260200160002060008b81526020019081526020016000206000828254610a3991906111c3565b925050819055507f4652516d9a89aa46bad6ee719199a1265603b1048266bd2a038907d922d85e0a8a8a8a604051610a73939291906110f4565b60405180910390a150505050505050505050565b610a8f610bd8565b610a97610bd8565b600080600990505b60118111610b7157610ab286828761069b565b610b04576000838360098110610af1577f4e487b7100000000000000000000000000000000000000000000000000000000600052603260045260246000fd5b6020020190151590811515815250610b4e565b6001838360098110610b3f577f4e487b7100000000000000000000000000000000000000000000000000000000600052603260045260246000fd5b60200201901515908115158152505b50600182610b5c91906111c3565b91508080610b69906112c1565b915050610a9f565b50819250505092915050565b601481565b601181565b6040518061028001604052806014905b610b9f610bb5565b815260200190600190039081610b975790505090565b604051806101200160405280600990602082028036833780820191505090505090565b604051806101200160405280600990602082028036833780820191505090505090565b600081359050610c0a81611406565b92915050565b600081359050610c1f8161141d565b92915050565b600081359050610c3481611434565b92915050565b600060208284031215610c4c57600080fd5b6000610c5a84828501610bfb565b91505092915050565b60008060408385031215610c7657600080fd5b6000610c8485828601610c10565b9250506020610c9585828601610c25565b9150509250929050565b60008060408385031215610cb257600080fd5b6000610cc085828601610c25565b9250506020610cd185828601610c10565b9150509250929050565b60008060408385031215610cee57600080fd5b6000610cfc85828601610c25565b9250506020610d0d85828601610c25565b9150509250929050565b600080600060608486031215610d2c57600080fd5b6000610d3a86828701610c25565b9350506020610d4b86828701610c25565b9250506040610d5c86828701610c10565b9150509250925092565b6000610d728383610e6c565b6101208301905092915050565b6000610d8b8383610ec3565b60208301905092915050565b6000610da38383610f9f565b60208301905092915050565b610db88161124d565b82525050565b610dc781611149565b610dd18184611191565b9250610ddc8261112b565b8060005b83811015610e0d578151610df48782610d66565b9650610dff8361116a565b925050600181019050610de0565b505050505050565b610e1e81611154565b610e28818461119c565b9250610e3382611135565b8060005b83811015610e64578151610e4b8782610d7f565b9650610e5683611177565b925050600181019050610e37565b505050505050565b610e758161115f565b610e7f81846111a7565b9250610e8a8261113f565b8060005b83811015610ebb578151610ea28782610d97565b9650610ead83611184565b925050600181019050610e8e565b505050505050565b610ecc8161125f565b82525050565b610edb8161125f565b82525050565b610eea8161126b565b82525050565b6000610efd600c836111b2565b9150610f0882611339565b602082019050919050565b6000610f206013836111b2565b9150610f2b82611362565b602082019050919050565b6000610f43601a836111b2565b9150610f4e8261138b565b602082019050919050565b6000610f666012836111b2565b9150610f71826113b4565b602082019050919050565b6000610f89600f836111b2565b9150610f94826113dd565b602082019050919050565b610fa8816112b7565b82525050565b610fb7816112b7565b82525050565b600061168082019050610fd36000830184610dbe565b92915050565b600061012082019050610fef6000830184610e15565b92915050565b600060208201905061100a6000830184610ed2565b92915050565b60006040820190506110256000830185610ee1565b6110326020830184610daf565b9392505050565b6000602082019050818103600083015261105281610ef0565b9050919050565b6000602082019050818103600083015261107281610f13565b9050919050565b6000602082019050818103600083015261109281610f36565b9050919050565b600060208201905081810360008301526110b281610f59565b9050919050565b600060208201905081810360008301526110d281610f7c565b9050919050565b60006020820190506110ee6000830184610fae565b92915050565b60006060820190506111096000830186610fae565b6111166020830185610fae565b6111236040830184610ee1565b949350505050565b6000819050919050565b6000819050919050565b6000819050919050565b600060149050919050565b600060099050919050565b600060099050919050565b6000602082019050919050565b6000602082019050919050565b6000602082019050919050565b600081905092915050565b600081905092915050565b600081905092915050565b600082825260208201905092915050565b60006111ce826112b7565b91506111d9836112b7565b9250827fffffffffffffffffffffffffffffffffffffffffffffffffffffffffffffffff0382111561120e5761120d61130a565b5b828201905092915050565b6000611224826112b7565b915061122f836112b7565b9250828210156112425761124161130a565b5b828203905092915050565b600061125882611297565b9050919050565b60008115159050919050565b60007fff0000000000000000000000000000000000000000000000000000000000000082169050919050565b600073ffffffffffffffffffffffffffffffffffffffff82169050919050565b6000819050919050565b60006112cc826112b7565b91507fffffffffffffffffffffffffffffffffffffffffffffffffffffffffffffffff8214156112ff576112fe61130a565b5b600182019050919050565b7f4e487b7100000000000000000000000000000000000000000000000000000000600052601160045260246000fd5b7f484f55525f494e56414c49440000000000000000000000000000000000000000600082015250565b7f524f4f4d5f4e554d4245525f494e56414c494400000000000000000000000000600082015250565b7f4d454554494e475f524f4f4d5f4e4f545f415641494c41424c45000000000000600082015250565b7f4e4f545f424f4f4b45445f42595f555345520000000000000000000000000000600082015250565b7f434f4d50414e595f494e56414c49440000000000000000000000000000000000600082015250565b61140f8161124d565b811461141a57600080fd5b50565b6114268161126b565b811461143157600080fd5b50565b61143d816112b7565b811461144857600080fd5b5056fea2646970667358221220f9d458197c61121f8b3476a72f477efc38e2ace9d2e24c40468eebc28e95e5bc64736f6c63430008040033",
  "linkReferences": {},
  "deployedLinkReferences": {}
}